:080000000C942A000C9400008E
:100008000C9400000C9400000C9400000C94000068
:100018000C9400000C9400000C9400000C94000058
:100028000C9400000C9400000C9400000C94000048
:100038000C9400000C9400000C9400000C94000038
:100048000C9400000C9400000C940000F894EE2727
:10005800ECBBF1E0FBBFEBBFE5BF8DE0A2E0BB2747
:10006800ED938A95E9F780E094E0A0E6ED93019797
:10007800E9F7EFE5EDBFE4E0EEBFC0E6D1E00C94B0
:100088005B00E0E0EBB9E8E1EAB9E6E8E0BDE0E012
:10009800E0BDE3E3E9B908951A931A2F1CB95E9BF2
:1000A800FECF199108955F9BFECFECB10895E9DF6B
:1000B800E0E0E2BBE1E0E1BBF6DF5E2EA8ECB0E0F9
:1000C80005D0A52DAF5FE8DFF7CFFFCF109639F049
:1000D800A89580ED97E00197F1F71197C9F7089572
:00000001FF
